:1000000006EF0DF00000000000EF00F0000000001F
:0A0010000000000000000000F3D71C
:10001C000B820BAE18EF00F00368026801680068F1
:08002C000A360232FF0E120039
:0E003400026A016A006A086A036A000E12007E
:100042000B840BAE2CEF00F0010E036E026A016A04
:0A005200006A0A360232FF0E1200A7
:08005C000AAE029E000E120024
:100064000CB074EF00F00CA21AEF01F00E6A000E4F
:1000740002648BEF00F0F00E0214D8A456EF00F0E7
:10008400023A01380F0B02260138F00B016E0038DA
:100094000F0B01260038F00B006E08380F0B0026FA
:1000A4000838F00B086E0E84D89002BE6FEF00F093
:1000B40008360036013602360E2A02BE6FEF00F013
:1000C40008360036013602360E2A02BE6FEF00F003
:1000D40008360036013602360E2A0E50036410EF3D
:1000E40001F0035E0BBC08AE15EF01F0D880800E62
:1000F40008640030000E002201220222D8A015EF6D
:1001040001F0023201320032034A1AEF01F015EF16
:1001140001F001C002F000C001F008C000F0086A5C
:10012400000E0E860264C2EF00F0F00E0214D8A492
:10013400AAEF00F0023A01380F0B02260138F00B47
:10014400016E00380F0B01260038F00B006E0E8490
:10015400D89002BE6FEF00F00036013602360E2A48
:1001640002BE6FEF00F00036013602360E2A02BEE0
:100174006FEF00F00036013602360E2A6FEF00F002
:1001840001C002F000C001F0006A000E0E960E8855
:100194000264EFEF00F0F00E0214D8A4DAEF00F0DE
:1001A400023A01380F0B02260138F00B016E0E845F
:1001B400D89002BE6FEF00F0013602360E2A02BE5E
:1001C4006FEF00F0013602360E2A02BE6FEF00F028
:1001D400013602360E2A6FEF00F001C002F0016A08
:1001E400000E0E8602641FEF01F0F00E0214D8A474
:1001F400FEEF00F0023A0E84D89002BE6FEF00F0DA
:1002040002360E2A02BE6FEF00F002360E2A02BE3C
:100214006FEF00F002360E2A6FEF00F0010E0C6E45
:100224000EDF22EF01F0020E0C6E16DF22EF01F05A
:10023400040E0C6EF1DE22EF01F0080E0C6EF8DEF7
:020244001200A6
:100246000B800BAE2FEF01F0026A0AAEFF0E026EB4
:0C025600016E006E0A360232FF0E12002C
:10026200025006180E6E086A096A0B6A0350076488
:1002720024EF02F006500A6E068E028E03500B6EB9
:100282000750036E000E0B6474EF01F00B50075E13
:10029200D8B415EF02F0070E0764E3EF01F0075E32
:1002A20000C008F001C000F002C001F0026A074E6F
:1002B20015EF02F00764B8EF01F0075E00C008F026
:1002C20001C000F0016A074E15EF02F0076496EFD5
:1002D20001F0075E00C008F0006A074E15EF02F059
:1002E20007647DEF01F00AC002F005C001F004C00E
:1002F20000F0086A3EEF03F0030E076488EF01F096
:10030200075E08380F0B086E074E15EF02F0D89003
:100312000832074E15EF02F0D8900832074E15EF5B
:1003220002F0D890083215EF02F0030E0764A7EF2F
:1003320001F0075E08380F0B086E0038F00B082634
:1003420000380F0B006E074E15EF02F0D890003206
:100352000832074E15EF02F0D89000320832074EED
:1003620015EF02F0D8900032083215EF02F0030EBA
:100372000764CFEF01F0075E08380F0B086E0038F4
:10038200F00B082600380F0B006E0138F00B002628
:1003920001380F0B016E074E15EF02F0D8900132B3
:1003A20000320832074E15EF02F0D89001320032C7
:1003B2000832074E15EF02F0D890013200320832AF
:1003C20015EF02F0030E076400EF02F0075E083833
:1003D2000F0B086E0038F00B082600380F0B006E6A
:1003E2000138F00B002601380F0B016E0238F00BBA
:1003F200012602380F0B026E074E15EF02F0D8905D
:100402000232013200320832074E15EF02F0D89064
:100412000232013200320832074E15EF02F0D89054
:100422000232013200320832096A000E0EAE09EFC2
:1004320003F0081E001E011E021E082A00220122CD
:10044200022209EF03F00750D8A42AEF02F03EEF90
:1004520003F0096A02C00AF0028E068E0750035C9E
:10046200076ED8B4FCEF02F0070E0764CAEF02F081
:10047200075E0450096E0550046E0650056E066A4A
:10048200074EFCEF02F0070E07649FEF02F0075ED3
:100492000450096E0550046E056A074EFCEF02F027
:1004A200070E07647DEF02F0075E0450096E046ACE
:1004B200074EFCEF02F0070E076464EF02F00AC079
:1004C20002F03EEF03F0030E07646FEF02F0075EE7
:1004D20009380F0B096E074EFCEF02F0D890093273
:1004E200074EFCEF02F0D8900932074EFCEF02F003
:1004F200D8900932FCEF02F0030E07648EEF02F08F
:10050200075E09380F0B096E0438F00B0926043810
:100512000F0B046E074EFCEF02F0D8900432093242
:10052200074EFCEF02F0D89004320932074EFCEF7E
:1005320002F0D89004320932FCEF02F0030E076495
:10054200B6EF02F0075E09380F0B096E0438F00BA4
:10055200092604380F0B046E0538F00B0426053803
:100562000F0B056E074EFCEF02F0D89005320432F5
:100572000932074EFCEF02F0D890053204320932FC
:10058200074EFCEF02F0D890053204320932FCEF3C
:1005920002F0030E0764E7EF02F0075E09380F0B63
:1005A200096E0438F00B092604380F0B046E053867
:1005B200F00B042605380F0B056E0638F00B0526E6
:1005C20006380F0B066E074EFCEF02F0D89006328B
:1005D200053204320932074EFCEF02F0D89006329F
:1005E200053204320932074EFCEF02F0D89006328F
:1005F200053204320932086A000E0EAE09EF03F02A
:10060200091E041E051E061E092A042205220622B0
:1006120009500826045000220550012206500222E9
:100622000EBE20EF03F0D8A02FEF03F0023201320A
:1006320000320832033E2FEF03F039EF03F0D8B057
:1006420034EF03F0000E081E001E011E021E082ACF
:100652000022012202220A7E34EF03F0010E0C6E08
:1006620000DD40EF03F0020E0C6EFBDC40EF03F006
:10067200040E0C6ED2DC40EF03F0000E0C6E120082
:0A068200030E0D6E0D2EFED71200C0
:06068C00067EE9DD12000C
:100692000050086E0150006E0250016E0350026E4F
:1006A200036A0B6A0C6A9E0E036E0A6A02AE66EF5A
:1006B20003F0081E001E011E021E082AD8B4002ADA
:1006C200D8B4012AD8B4022A0A8E020E0C6EC9DCF2
:0206D200120014
:1006D400480E0C6E6C0E0D6E0D2EFED70C2EFCD734
:0406E4000000120000
:1006E8000A6A0350D8A40A800750D8A40A820A507C
:1006F800D8B4D7EF03F0030AD8B490EF03F00AB0E8
:100708008BEF03F006AED5EF03F0D3EF03F002AEA4
:10071800D3EF03F0D5EF03F00250800B0A6E029E70
:100728000650800B069E0A18D8B4A1EF03F00A50B1
:10073800D8B4D3EF03F0D5EF03F00750035CD8B477
:10074800ABEF03F0D8A0C7EF03F0CDEF03F00650EE
:10075800025CD8B4B5EF03F0D8A0C7EF03F0CDEF33
:1007680003F00550015CD8B4BFEF03F0D8A0C7EF81
:1007780003F0CDEF03F00450005CD8B4D7EF03F0DA
:10078800D8B0CDEF03F00A52D8B4D5EF03F0D3EFC9
:1007980003F00A52D8B4D3EF03F0D5EF03F0D880B2
:0E07A8001200D8901200D880D88412001200DF
:0807B6000B6A0B86FF0E120016
:1007BE000C6A0E6A0250D8A4F8EF03F001C002F0E2
:1007CE0000C001F0006A0E860250D8A4F8EF03F0C4
:1007DE0001C002F0016A0E960E880250D8B40AEFDC
:1007EE0004F00E50035ED8A4D8A00FEF04F0D890FA
:1007FE0002BE14EF04F0003601360236032EFFEF70
:10080E0003F00FEF04F0010E0C6E0DDC17EF04F089
:10081E00020E0C6E0FDC17EF04F0040E0C6E17DCDC
:02082E001200B6
:0C083000A60E0D6E0D2EFED7000012006B
:10083C000B6A0C6A086A0350D8B4A2EF04F002C029
:10084C000AF0028E9E0E035E03AE92EF04F0036C70
:10085C00080E035CD8A05FEF04F0036E083600C0EE
:10086C0008F001C000F002C001F0026A080E035C3F
:10087C00D8A05FEF04F0036E083600C008F001C08A
:10088C0000F0016A080E035CD8A05FEF04F0036E61
:10089C00083600C008F0006A080E035CD8A05FEFB1
:1008AC0004F0036E0836086A0350D8A4D8906BEF96
:1008BC0004F00350D8B46BEF04F0D890023201323C
:1008CC0000320832032E63EF04F00BBC08A07CEF5F
:1008DC0004F0D8A07CEF04F0082AD8B4002AD8B4CD
:1008EC00012AD8B4022A02BEA6EF04F00AAEA2EF87
:1008FC0004F0021E011E001E081E082AD8B4002A8D
:10090C00D8B4012AD8B4022AA2EF04F0026A016A10
:10091C00006A086AA2EF04F00B800BAEACEF04F097
:10092C00026A0AAEACEF04F0026E016E006E086E45
:10093C000A360232ACEF04F00C6A000EADEF04F094
:10094C00010E0C6E000E79DCADEF04F0FF0E0250C0
:10095C00036E0150026E0050016E0850006E1200C2
:10096C00086A096A000E076203643BEF05F0025047
:10097C0006180A6E075003267E0ED8A0CCEF04F0A2
:10098C00035ED8B040EF05F0D0EF04F0035ED8A0C2
:10099C0045EF05F0028E068E02C00EF001C00BF082
:1009AC0000C00DF000500402F4CF0CF00150050211
:1009BC00F4CF00F0F3CF08F00402F3500C26F450FF
:1009CC000822000E00220D500502F3500C26F450A4
:1009DC000822000E002202500402F3500826F450A4
:1009EC00002202500502016A000E0122F35000267B
:1009FC00F45001220D500602F3500826F450002248
:100A0C00026A000E012202220B500602F35000264D
:100A1C00F4500122000E02220E500602F350012661
:100A2C00F450022202BE23EF05F0083600360136E0
:100A3C0002360306D8B445EF05F036EF05F0D88042
:100A4C00800E08640030000E002201220222D8A081
:100A5C0036EF05F0023201320032034A40EF05F066
:100A6C000AAE029E000E48EF05F0010E1AEC00F0E3
:100A7C0048EF05F0020E0EEC00F048EF05F0040E06
:060A8C0021EC00F0120055
:100A9200086A096A100E0C6E0134083609360450D1
:100AA200085E0550D8A0053C095ED8B007D00450B6
:100AB20008260550D8B0053C0926D89000360136E4
:060AC2000C2EEAD7120021
:100AC8000B6A0350D8B4AAEF05F002500A6E028EE2
:100AD8008E0E035E03AEAEEF05F0036C080E035CEA
:100AE800D8A089EF05F0036E013602C001F0026A52
:100AF800080E035CD8A089EF05F0036E0136016A81
:100B08000350D8A4D89093EF05F00350D8B493EFCE
:100B180005F0D89002320132032E8DEF05F00BBCA0
:100B280001A0A0EF05F0D8A0A0EF05F0012AD8B4E5
:100B3800022A02BEBDEF05F00AAEC3EF05F0021EA1
:100B4800011E012AD8B4022AC3EF05F0026A016A1D
:100B5800C3EF05F00B800BAEC7EF05F0026A0AAED3
:100B6800C7EF05F0FF0E026E016E0A360232C7EFBC
:100B780005F0010E0C6E23EC01F0C9EF05F0000E34
:100B88000C6EC9EF05F0FF0E0C6E0150006E02509E
:040B9800016E1200D8
:100B9C000450000A12E10550000A0FE10650000A49
:100BAC000CE10750000A09E1FF0E006EFF0E016E0A
:100BBC007F0E026EFF0E036EA7D0086A096A0750FB
:100BCC00D8B479EF06F00350D8B47DEF06F002509C
:100BDC0006180A6E028E068E0E6A02C008F001C05C
:100BEC000CF000C00DF004500D5E0550D8A0053C73
:100BFC000C5E0650D8A0063C085E086A0C6A0D6AAA
:100C0C00D8A010EF06F0D890023201320032083230
:100C1C00010E0E6E0750035ED8A01DEF06F07E0E7F
:100C2C000E240326D8B082EF06F023EF06F07E0EDA
:100C3C000E240326D8A087EF06F0180E0B6E0D3687
:100C4C000C3608360036013602360E360450005E7D
:100C5C000550D8A0053C015E0650D8A0063C025EAB
:100C6C0006340E120EA03EEF06F00D8049EF06F092
:100C7C00045000260550D8B0053C01260650D8B0CB
:100C8C00062802260D900B2E25EF06F06FEF06F0CE
:100C9C00D8900036013602360E360450005E0550F0
:100CAC00D8A0053C015E0650D8A0063C025E063476
:100CBC000E10010B0D26D8B00C2AD8B4082AD8A4D3
:100CCC006FEF06F008320C320D32032AD8B482EFE3
:100CDC0006F00AAE089E0850026E0C50016E0D50C4
:100CEC00006E8AEF06F0010E60DD8AEF06F0020E50
:100CFC001AEC00F08AEF06F0040E0EEC00F08AEF0E
:0A0D0C0006F0080E21EC00F01200C2
:100D1600ED0E0001F36F000EF46F030EF325D96E8E
:100D2600000EF421DA6EDE50F125016E000EF2217E
:100D3600026E01C0F1F002C0F2F0800E0218006EE1
:100D4600800E005C02E1000E015C05E2006A016AA9
:100D5600026A036A3ED0800E006E800EF219005CB5
:100D660002E1F151FF0825E2046A056A066A076A8C
:100D7600EDC000F0EEC001F0EFC002F0F0C003F0ED
:100D8600B0DC010ED8B0000E006E005209E0FF0E76
:100D9600006EFF0E016EFF0E026EFF0E036E19D07F
:100DA600FF0E006EFF0E016E7F0E026EFF0E036ECB
:100DB60010D0030EF325E16E000EF421E26EF1C0B1
:100DC600E6FFEDC000F0EEC001F0EFC002F0F0C0AB
:040DD60003F0120014
:100DDA00F0C000F0016A026A036AFF0E0016000EF4
:100DEA00011600C0F5F001C0F6F07F0E005C026E3D
:100DFA00000E0158036E02C0F5F003C0F6F0800E33
:100E0A000318006E800E005C02E1000E025C21E213
:100E1A00046A056A066A076AEDC000F0EEC001F0CE
:100E2A00EFC002F0F0C003F05ADC010ED8B0000E99
:100E3A00006E005209E0000E006E000E016E800E78
:100E4A00026E7F0E036E59D0006A016A026A036A53
:100E5A0054D00001F651000802E1F551180809E2E0
:100E6A00EDC000F0EEC001F0EFC002F0F0C003F0F8
:100E7A0044D0EDC000F0EEC001F0EFC002F0F0C0C7
:100E8A0003F0D7DC01DC00C0F1F001C0F2F002C0CF
:100E9A00F3F003C0F4F000C004F001C005F002C092
:100EAA0006F003C007F0EDC000F0EEC001F0EFC09D
:100EBA0002F0F0C003F013DC010ED8B0000E006E91
:100ECA00005213E0000E046E000E056E000E066E50
:100EDA007F0E076EF1C000F0F2C001F0F3C002F01D
:100EEA00F4C003F046EC03F008D0F1C000F0F2C001
:0C0EFA0001F0F3C002F0F4C003F012009D
:100F060003500718D8A497EF07F002500618D8A484
:100F160097EF07F001500518D8A497EF07F0005097
:0E0F26000418D8B4D8841200D8941200120017
:100F340000C008F00150006E016A026A036A0B6A7D
:100F44000C6A016A026A036A960E036E0A6A00AEAC
:100F5400B2EF07F0081E001E082AD8B4002A0A8E31
:100F640000C001F008C000F0086A026A26DC120022
:100F74000001EDBF02D0839E01D0838EEDBD02D06F
:100F8400839C01D0838CEDBB02D0839A01D0838AE9
:100F9400EDB902D0839801D0838860B102D08384F4
:100FA40001D08394838641EC03F08396EDB702D09D
:100FB400839E01D0838EEDB502D0839C01D0838CB7
:100FC400EDB302D0839A01D0838AEDB102D0839825
:100FD40001D0838860B102D0838401D08394838656
:100FE40041EC03F0839660A103D06AEC03F001D0D6
:040FF4001DDC1200EE
:100FF800ED0E046E000E056E030E0424E96E000E5D
:101008000520EA6E7E0EEE5C006E016A000E015A43
:10101800F1C0E1FFF2C0E2FF00C0E6FF01C0E6FF59
:10102800030E0424E16E000E0520E26E7E0EE66ECD
:10103800EDC000F0EEC001F0EFC002F0F0C003F028
:02104800120094
:10104A00F4C000F0F5C001F0000E0001F5BFFF0E7C
:10105A00026E036E00360090013602360336003601
:10106A000090013602360336F1510024F66EF25131
:10107A000120F76EF3510220F86E0900F5CFF6F061
:10108A000900F5CFF7F00900F5CFF8F00900F5CF20
:10109A00F9F0F451F51148E0EDC000F0EEC001F0AE
:1010AA00EFC002F0F0C003F0F6C004F0F7C005F09C
:1010BA00F8C006F0F9C007F054DC010EF45F000E28
:1010CA00F55BF4C004F0F5C005F0000EF5BFFF0EA5
:1010DA00066E076E04360490053606360736043661
:1010EA000490053606360736F1510424F66EF2519D
:1010FA000520F76EF3510620F86E0900F5CF04F0CB
:10110A000900F5CF05F00900F5CF06F00900F5CF83
:10111A0007F031EC01F000C0F6F001C0F7F002C0B0
:10112A00F8F003C0F9F0B5D7F6C000F0F7C001F047
:0A113A00F8C002F0F9C003F0120043
:0A114400490E0D6E0D2EFED71200AD
:10114E000001E76B050EE75D0AE2E751E525E16E6A
:10115E00000EE621E26E200EE66EE72BF3D7E75186
:10116E00E525E16E000EE621E26EE66AE707E7513D
:10117E00E525E86F000EE621E96F0A0E046E000EFB
:10118E00056EE3C000F0E4C001F07CDC08C000F0A6
:10119E0009C001F0300E0026E8C0E1FFE9C0E2FF11
:1011AE0000C0E6FF0A0E046E000E056EE3C000F0EE
:1011BE00E4C001F067DC00C0E3F001C0E4F0000E13
:1011CE00011802E1000E001801E102D0E707CFD7A7
:0211DE001200FD
:1011E000046A056A066A076AE3C000F0E4C001F019
:1011F000E5C002F0E6C003F086DE010ED8A4000EC2
:10120000006E005209E0000E006E000E016E000E2E
:10121000026E7F0E036EFCD0E3C004F0E4C005F064
:10122000E5C006F0E6C007F0FC0E006ED40E016EBD
:10123000320E026E850E036E74EC03F0010ED8B010
:10124000000E006E005209E0FF0E006EFF0E016EF0
:101250007F0E026EFF0E036EDBD04F0E046EAC0EDF
:10126000056EAE0E066E850E076EE3C000F0E4C09C
:1012700001F0E5C002F0E6C003F074EC03F0010EEB
:10128000D8B0000E006E005205E0006A016A026AE2
:10129000036ABED0046A056A066A076AE3C000F002
:1012A000E4C001F0E5C002F0E6C003F074EC03F026
:1012B000010ED8B0000E006E00C0E9F0005202E04E
:1012C0000001E57FE3C000F0E4C001F0E5C002F0FA
:1012D000E6C003F03B0E046EAA0E056E380E066ED5
:1012E0007F0E076EB6EC04F000C0E3F001C0E4F03E
:1012F00002C0E5F003C0E6F000C0EDF001C0EEF082
:1013000002C0EFF003C0F0F068DD64EC05F000C04F
:10131000E7F001C0E8F00EDE00C004F001C005F007
:1013200002C006F003C007F0E3C000F0E4C001F023
:10133000E5C002F0E6C003F046EC03F000C0E3F0C5
:1013400001C0E4F002C0E5F003C0E6F000C0EDF03B
:1013500001C0EEF002C0EFF003C0F0F00B0E000190
:10136000F16F220EF26F000EF36F090EF46F000E94
:10137000F56F6BDE00C0EDF001C0EEF002C0EFF0E3
:1013800003C0F0F0E7C0F1F0E8C0F2F0C4DC00C048
:10139000E3F001C0E4F002C0E5F003C0E6F0E95379
:1013A0002FE0FF0E046EFF0E056E7F0E066EFF0E21
:1013B000076EE3C000F0E4C001F0E5C002F0E6C053
:1013C00003F0A1DD010ED8A4000E006E005205E06E
:1013D000006A016A026A036A1BD0E3C004F0E4C039
:1013E00005F0E5C006F0E6C007F0000E006E000E46
:1013F000016E000E026E7F0E036ECEEC05F008D07B
:10140000E3C000F0E4C001F0E5C002F0E6C003F084
:021410001200C8
:0E14120000016091E3C0EDF0ACDD60811200DE
:10142000E3C004F0E4C005F0E5C006F0E6C007F054
:10143000006A016A026A036A74EC03F0000ED8B015
:10144000010E006E005205E0006A016A026A036A3A
:101450006AD0E3C0EDF0E4C0EEF0E5C0EFF0E6C026
:10146000F0F0E70E0001F16F000EF26FC5DD000E27
:10147000046E000E056E000E066E800E076EB6EC52
:1014800004F0000E046E000E056E000E066E7F0E58
:10149000076E46EC03F000C0E3F001C0E4F002C0C8
:1014A000E5F003C0E6F0010EE75F000EE85B00C068
:1014B000EDF001C0EEF002C0EFF003C0F0F0330E2B
:1014C000F16F220EF26F000EF36F080EF46F000E34
:1014D000F56FBBDD00C0E9F001C0EAF002C0EBF03F
:1014E00003C0ECF0E9C0E3F0EAC0E4F0EBC0E5F0E3
:1014F000ECC0E6F0E7C000F0E8C001F01BDD180E1C
:10150000046E720E056E310E066E7E0E076EB6EC20
:1015100004F0E9C004F0EAC005F0EBC006F0ECC04E
:0815200007F031EC01F01200AC
:1015280010D0800E0001D66F1AD0C00ED66F17D01B
:10153800940ED66F14D0D40ED66F11D0800ED66FFD
:101548000ED00001D651010AECE0D651020AEDE0B6
:10155800D651030AEDE0D651040AEDE0EFD7D705DE
:10156800006ED651002600C0D6F000C0EDF0FEDCBB
:101578006091DA6BDA51D825E96E000ED921EA6E4E
:10158800EE520BE0DA51D825E96E000ED921EA6E49
:0E159800EECFE3F03ADFDA2BEDD760811200E0
:1015A6000900F5CFE6FF0006FBE10106F9E11200AE
:1015B600FF0E0001BE6FFF0EBF6FFF0EC06FFF0E66
:1015C600C16FC26A5F1C006E0050C116070EC012C2
:0615D600C08EC28012006D
:1015DC00959695949598959A959C959E83968394BB
:1015EC00839E839C839A83986AEC03F06AEC03F0E5
:1015FC006AEC03F0838A8388838641EC03F083963C
:10160C006AEC03F0838641EC03F083966AEC03F0FA
:10161C00838641EC03F083966AEC03F0839883860F
:10162C0041EC03F083966AEC03F0838641EC03F003
:10163C008396839A838E838641EC03F083966AECBF
:10164C0003F0839E8388838641EC03F08396839812
:10165C00838641EC03F083966AEC03F0838641ECBD
:10166C0003F083968388838641EC03F083966AECBF
:10167C0003F08398838641EC03F08396838E838CEE
:10168C00838A8388838641EC03F083966AEC03F0AB
:06169C0000016081120054
:1016A2000001D86BD851D625E96E000ED721EA6E1B
:1016B200EE520BE0D851D625E96E000ED721EA6E24
:0C16C200EECFE3F0A5DED82BEDD7120030
:1016CE000001E26B046A056A066A076ADAC000F076
:1016DE00DBC001F0DCC002F0DDC003F00DDC010E5A
:1016EE00D8A4000E006E005209E0000E006E000E2F
:1016FE00016E000E026E7F0E036EA6D0046A056A9E
:10170E00066A076AD6C000F0D7C001F0D8C002F052
:10171E00D9C003F083EC07F0010ED8A4000E006EC2
:10172E00005205E0006A016A026A036A8DD0046AFB
:10173E00056A066A076AD6C000F0D7C001F0D8C0A5
:10174E0002F0D9C003F074EC03F0010ED8B0000E15
:10175E00006E00522DE0DAC000F0DBC001F0DCC0FC
:10176E0002F0DDC003F01EEC04F000C0DEF001C09C
:10177E00DFF002C0E0F003C0E1F049EC03F0DAC0A4
:10178E0004F0DBC005F0DCC006F0DDC007F083EC32
:10179E0007F0000ED8A4010E006E005205E0006A9C
:1017AE00016A026A036A50D0010EDE15E26FD87F1D
:1017BE00D6C0E3F0D7C0E4F0D8C0E5F0D9C0E6F06B
:1017CE0028DE00C0D6F001C0D7F002C0D8F003C0AA
:1017DE00D9F0DAC004F0DBC005F0DCC006F0DDC0E5
:1017EE0007F0B6EC04F000C0D6F001C0D7F002C08E
:1017FE00D8F003C0D9F000C0E3F001C0E4F002C09D
:10180E00E5F003C0E6F0E5DC00C0D6F001C0D7F08D
:10181E0002C0D8F003C0D9F00001E2530DE0000E73
:10182E00D619006E000ED719016E800ED819026EF1
:10183E00000ED919036E08D0D6C000F0D7C001F043
:0A184E00D8C002F0D9C003F0120068
:101858000001DC6BDD6BD6C0DEF0D7C0DFF0800E98
:10186800D719006E800E005C02E1000ED65D0BE217
:10187800010EDC6F000EDD6FD6510008DE6FD7C099
:10188800DFF0000EDF57DEC0E3F0DFC0E4F0D8C0C1
:10189800E5F0D9C0E6F057DC060EDA6F000EDB6F14
:1018A800000E006EDB51005C02E1DA51000819E21B
:1018B800DA51D825E16EDB51D921E26E010EDA5DED
:1018C800006E000EDB59016E0050D825E96E0150FC
:1018D800D921EA6EEECFE6FF010EDA5F000EDB5B80
:1018E800DFD7D8C0E1FFD9C0E2FF200EE66EDC5199
:1018F800DD111AE0DA6BDB6BDA51D825E96EDB51C2
:10190800D921EA6EEE50200A03E1DA4BDB2BF4D73B
:10191800010EDA5F000EDB5BDA51D825E16EDB5190
:0A192800D921E26E2D0EE66E1200CA
:101932000050086E0150006E016A026A036A0B6A67
:101942000C6A960E036E0A6A00C001F008C000F02D
:0A195200086A026ADFEC03F01200DD
:10195C000001D86BD96BD6C003F0D7C004F0D6C049
:10196C0005F0D7C006F003C0E9FF04C0EAFFEE5053
:10197C00200A04E1D851D91101E110D0010ED86F21
:10198C00000ED96F03C0E9FF04C0EAFF05C0E1FFF8
:10199C0006C0E2FFEECFE6FF054A062A03C001F0BF
:1019AC0004C002F0034A042A01C0E9FF02C0EAFFA6
:1019BC00EE50000AD8E1D6C000F0D7C001F01200FA
:1019CC00C26A5F1C006E0050C116070EC012C08E9A
:1019DC00D6C000F000360090003600900050C212C5
:1019EC00C280A2EC08F0C282C2A201D0FDD7C4CF43
:1019FC0001F0006AC3500012000E0112C2901200D6
:101A0C003AEC11F0930E0001C66F260EC76F140E40
:101A1C00C86F750EC96F0E0ECA6F430ECB6F750E65
:101A2C00CC6F720ECD6FDC0ECE6F540ECF6F3E0EA0
:101A3C00D06F670ED16F936A816AB7DDC9DD010E75
:101A4C00ED6FBAEC07F00C0EED6FBAEC07F0010E6F
:101A5C00D66F010ED76F3C0ED86F000ED96F5EDDBE
:101A6C00020ED66F010ED76F4A0ED86F000ED96FCB
:101A7C0055DD660E0B6E760E0C6EC10E0D6E0D2EB8
:101A8C00FED70C2EFCD70B2EFAD7010EED6FBAEC4D
:101A9C0007F0010ED66F010ED76F2A0ED86F000E0D
:101AAC00D96F3CDD020ED66F010ED76F340ED86F96
:101ABC00000ED96F33DD660E0B6E760E0C6EC10EFA
:101ACC000D6E0D2EFED70C2EFCD70B2EFAD7010E59
:101ADC00ED6FBAEC07F0070EB46E010EC26ED66B4A
:101AEC006FDF21DF00C05BF001C05CF002C05DF075
:101AFC0003C05EF0000E046E000E056E200E066E26
:101B0C00810E076EB6EC04F000C05BF001C05CF017
:101B1C0002C05DF003C05EF0000E046EC00E056ED8
:101B2C007F0E066E880E076ECEEC05F000C05BF0E3
:101B3C0001C05CF002C05DF003C05EF000C004F0B8
:101B4C0001C005F002C006F003C007F0000E006EE5
:101B5C00E80E016E000E026E8E0E036ECEEC05F0DA
:101B6C0000C061F001C062F002C063F003C064F019
:101B7C00000E046E400E056E1C0E066E8C0E076E6B
:101B8C0046EC03F000C061F001C062F002C063F0EB
:101B9C0003C064F000C0E3F001C0E4F002C0E5F063
:101BAC0003C0E6F037DC00C0C2F001C0C3F002C0D5
:101BBC00C4F003C0C5F0CAC004F0CBC005F0CCC063
:101BCC0006F0CDC007F0B6EC04F000C0C2F001C0C6
:101BDC00C3F002C0C4F003C0C5F061C0E3F062C042
:101BEC00E4F063C0E5F064C0E6F014DC00C0D6F0AD
:101BFC0001C0D7F002C0D8F003C0D9F0000E00012C
:101C0C00DA6F000EDB6F400EDC6F800EDD6F59DD7E
:101C1C00CEC004F0CFC005F0D0C006F0D1C007F0A4
:101C2C00B6EC04F000C0D2F001C0D3F002C0D4F086
:101C3C0003C0D5F0C6C000F0C7C001F0C8C002F0A8
:101C4C00C9C003F0C2C004F0C3C005F0C4C006F0A4
:101C5C00C5C007F031EC01F0D2C004F0D3C005F0E0
:101C6C00D4C006F0D5C007F031EC01F000C057F03D
:101C7C0001C058F002C059F003C05AF000C004F083
:101C8C0001C005F002C006F003C007F0000E006EA4
:101C9C00000E016E000E026E7F0E036ECEEC05F090
:101CAC0000C057F001C058F002C059F003C05AF000
:101CBC00330E046E930E056E080E066E870E076EBD
:101CCC0046EC03F000C057F001C058F002C059F0C8
:101CDC0003C05AF000C004F001C005F002C006F0C9
:101CEC0003C007F0000E006E000E016E140E026EA3
:101CFC00850E036E46EC03F000C057F001C058F09F
:101D0C0002C059F003C05AF064EC05F000C0D6F0E4
:101D1C0001C0D7F0B80E0001D86F000ED96F96DD58
:101D2C00B80ED66F000ED76F13DE020ED66F030EF1
:101D3C00D76F190ED86F000ED96F94EC0AF0B80E4D
:101D4C00D66F000ED76FA7DC010ED66F39DEEBDD38
:101D5C0000C01AF001C01BF002C01CF003C01DF043
:101D6C00010E0001D66F2CDEDEDD00C015F001C0C7
:101D7C0016F002C017F003C018F0000E046E000E2F
:101D8C00056E480E066E850E076EB6EC04F000C0AC
:101D9C0015F001C016F002C017F003C018F0000EC9
:101DAC00046EC00E056E7F0E066E880E076ECEECAE
:101DBC0005F000C004F001C005F002C006F003C03D
:101DCC0007F0000E006E000E016E480E026E850EBE
:101DDC00036E46EC03F000C015F001C016F002C013
:101DEC0017F003C018F064EC05F000C0D6F001C089
:101DFC00D7F0B20E0001D86F000ED96F27DDB20EEE
:101E0C00D66F000ED76FA4DD010ED66F030ED76F01
:101E1C00260ED86F000ED96F94EC0AF0B20ED66F66
:101E2C00000ED76F38DC1AC004F01BC005F01CC0C4
:101E3C0006F01DC007F0000E006E000E016E160EAF
:101E4C00026E880E036E74EC03F0010ED8B0000E17
:101E5C00006E005253E057C004F058C005F059C052
:101E6C0006F05AC007F0000E006E000E016E340E24
:101E7C00026E840E036E74EC03F0010ED8B0000EEB
:101E8C00006E00523BE0300E816E1A0E0B6E5E0E31
:101E9C000C6E6E0E0D6E0D2EFED70C2EFCD70B2E6F
:101EAC00FAD70000010EED6FBAEC07F0010ED66FF9
:101EBC00010ED76F270ED86F000ED96F94EC0AF075
:101ECC00020ED66F010ED76F1E0ED86F000ED96F93
:101EDC0094EC0AF0010ED66F0C0ED76F210ED86F52
:101EEC00000ED96F94EC0AF0020ED66F070ED76F66
:101EFC008F0ED86F000ED96F94EC0AF01AC004F054
:101F0C001BC005F01CC006F01DC007F0000E006ED3
:101F1C00000E016E160E026E880E036E74EC03F04A
:101F2C00010ED8B0000E006E005253E0000E046E8D
:101F3C00000E056E340E066E840E076E57C000F050
:101F4C0058C001F059C002F05AC003F074EC03F011
:101F5C00010ED8B0000E006E00523BE0100E816EE8
:101F6C001A0E0B6E5E0E0C6E6E0E0D6E0D2EFED7D7
:101F7C000C2EFCD70B2EFAD70000010EED6FBAEC2D
:101F8C0007F0010ED66F010ED76F980ED86F000EAA
:101F9C00D96F94EC0AF0020ED66F010ED76F870E34
:101FAC00D86F000ED96F94EC0AF0010ED66F0C0EA0
:101FBC00D76F8A0ED86F000ED96F94EC0AF0020E10
:101FCC00D66F070ED76FA60ED86F000ED96F94EC94
:101FDC000AF01AC004F01BC005F01CC006F01DC0AE
:101FEC0007F0000E006E000E016E160E026E880ECB
:101FFC00036E74EC03F0000ED8B0010E006E0052AC
:10200C0053E057C004F058C005F059C006F05AC050
:10201C0007F0000E006E000E016E340E026E840E80
:10202C00036E74EC03F0010ED8B0000E006E00527B
:10203C003BE0200E816E1A0E0B6E5E0E0C6E6E0E59
:10204C000D6E0D2EFED70C2EFCD70B2EFAD70000E2
:10205C00010EED6FBAEC07F0010ED66F010ED76FC3
:10206C00AF0ED86F000ED96F94EC0AF0020ED66F3B
:10207C00010ED76F9B0ED86F000ED96F94EC0AF03F
:10208C00010ED66F090ED76F9E0ED86F000ED96F4A
:10209C0094EC0AF0020ED66F070ED76F700ED86F45
:1020AC00000ED96F94EC0AF01AC004F01BC005F0B6
:1020BC001CC006F01DC007F0000E006E000E016E75
:1020CC00160E026E880E036E74EC03F0000ED8B080
:1020DC00010E006E005252E0000E046E000E056EF2
:1020EC00340E066E840E076E57C000F058C001F017
:1020FC0059C002F05AC003F074EC03F0010ED8B0D2
:10210C00000E006E00523AE0816A1A0E0B6E5E0EE3
:10211C000C6E6E0E0D6E0D2EFED70C2EFCD70B2EEC
:10212C00FAD70000010EED6FBAEC07F0010ED66F76
:10213C00010ED76F7A0ED86F000ED96F94EC0AF09F
:10214C00020ED66F010ED76F650ED86F000ED96FC9
:10215C0094EC0AF0010ED66F090ED76F680ED86F8B
:10216C00000ED96F94EC0AF0020ED66F070ED76FE3
:10217C007D0ED86F000ED96F94EC0AF0ACD4FFD75B
:1022740010EE15F04A0E006E010E016E8C0EF66E15
:10228400210EF76E000EF86ED3EC0AF010EE61F03A
:102294001C0E006E010E016E570EF66E220EF76EC6
:1022A400000EF86ED3EC0AF010EE5FF0010E006E33
:1022B400010E016E730EF66E220EF76E000EF86EAE
:1022C400D3EC0AF010EE7DF0350E006E010E016EB7
:1022D400D60EF66E210EF76E000EF86ED3EC0AF0F1
:0222E4001200E6
:04218C00000000004F
:01219000004E
:04219100000000004A
:03219500543A00B9
:052198005345434F0018
:01219D000041
:03219E00553A00AF
:0A21A100696E696369616E646F0086
:0821AB006C6569747572610036
:0E21B300636F6E74726F6C65206175746F00DF
:0D21C100646520697272696761E7E36F0071
:0421CE00000000000D
:0421D2000000000009
:0A21D6004D6F746F72206F66660093
:0321E000543A006E
:0521E3005345434F00CD
:0921E8004D6F746F723A6F6E00C6
:0321F100553A005C
:0321F400543A005A
:0821F7004D4F4C4841444F00DC
:0921FF004D6F746F723A6F6E00AF
:03220800553A0044
:10220B000000007F1872317EF0FD757C4758637AB1
:10221B0058951D7882C42E75A8782172EF93006FA4
:08222B00A092276B46561568CE
:10223300FFE65B5DC4FF7F7E80EFFF7D90E1297D3C
:10224300EC82F67C82AD2B7C0E3CC37B87D1137A68
:042253004178D37784
:042257000000000083
:03225B00543A00F2
:08225E004D4F4C4841444F0074
:0A2266004D6F746F72206F66660002
:03227000553A00DC
:01227300303A
:020000040030CA
:0E000000000C1F1EFF8381FF0FC00FE00F409A
:00000001FF
